:020000040800F2
:10000000582900201D970008399700083D970008DF
:100010004197000845970008499700080000000034
:100020000000000000000000000000004D970008E4
:1000300051970008000000005597000859970008E4
:100040005D970008619700086597000869970008A8
:100050006D97000871970008759700087997000858
:100060007D97000881970008859700088997000808
:100070008D970008919700089597000899970008B8
:100080009D970008A1970008A5970008A997000868
:10009000AD970008B1970008B5970008B997000818
:1000A000115E00081D5E0008295E0008C95D000899
:1000B000D55D0008E15D0008ED5D0008BD97000812
:1000C000C1970008C5970008C9970008CD97000898
:1000D000D1970008D59700083B8F0008D9970008F2
:1000E000DD970008E1970008E5970008355E0008F5
:1000F000415E00084D5E0008055E0008E9970008B3
:10010000ED970008F1970008F95D0008F5970008E1
:1001100097740008F9970008FD9700086D4D0008D6
:100120000198000805980008099800080D98000833
:100130001198000815980008199800081D980008E3
:100140002198000825980008299800082D98000893
:100150003198000835980008399800083D98000843
:100160004198000845980008499800084D980008F3
:100170005198000855980008599800085D980008A3
:1001800061980008659800082DE9F04F80460FF24D
:100190001860A5B017461D46D0E90023CDE912230B
:1001A000002004910D900DF1500A6FF0004900E01D
:1001B000E7190020ADF8020012AB4FF0FF323946CC
:1001C0000DF1020001F087F80446012C04DA3878BA
:1001D000441EA441E043C40FBDF8020025280CBF13
:1001E000A4F1010BA346BBF1010F0EDB3E4616F84E
:1001F000011B0498C0470490002800F0CF820D989E
:10020000401C0D90BBF1010BF1D1BDF80200252877
:1002100007D100200790089009900A900B900C904D
:1002200005E00028C4D10D98BAE240F0010017F8AB
:10023000011F2029F9D023290DD02B2904D02D29E5
:1002400006D030290AD00CE040F0020080B2EEE780
:1002500040F00400FAE740F00800F7E740F0100033
:10026000F4E72A290ED12968296051F8042B296066
:100270000F92002A04D5514240F004000F9180B241
:100280007F1C11E000210F9109E00F99494505D02D
:1002900001EB810302EB430130390F917F1C3A7867
:1002A000A2F130010A29F0D339782E2903D04FF07A
:1002B000FF310E911DE017F8011F2A2907D1296887
:1002C00029607F1C51F8042B29600E9211E0002157
:1002D0000E9109E00E99494505D001EB810302EB2F
:1002E000430130390E917F1C3A78A2F130010A297E
:1002F000F0D3ADF840000FF2B840397801F00CF8B7
:1003000008B117F8010B8DF842009DF842006828EB
:1003100002BF39786829622005D06C2804BF38787C
:100320006C2803D171208DF842007F1C14A8069020
:1003300017F8014BB4F125002AD01C3800F0CC800E
:10034000001F022840F2C880133800F0EE80093800
:1003500000F0C280801E00F04F81401E00F024811A
:10036000401E022840F2B880001F00F01D81401F8F
:1003700000F08380401E00F0D880401E2DD0C01EAB
:100380000CD0801E00F0D180C01E00F0CE8056E15F
:100390000120079025208DF850005BE19DF8420078
:1003A0006C282868286014D050F8046B28600596E3
:1003B0000E9C002C04D5304600F0BEFF044606E03B
:1003C00022460021304600F0D3FF00B1841B089480
:1003D00040E150F8042B28602AE13C242968296078
:1003E00051F8040B29600021CDE9020114A8059001
:1003F000DDE90201069E11B908B90E9AB2B10206F2
:10040000120FA0EB02123032631ED2B21C463A2AFF
:10041000A8BF273200099A5540EA0170090908BFB0
:10042000002803D0059AA3199A42E8D3A019059091
:10043000C4F13C010E980891814209DA401A0A90F1
:100440004FF6EF71BDF840000840ADF8400001E103
:10045000002840F1FF809DF8400000F014001028B3
:1004600040F0F8800F98079A801A0A9A801A401A6A
:100470000128C0F2EF800A90ECE09DF8420062286B
:100480001AD0682806D06A280CD06C281CD0712895
:1004900008D019E02868286050F8041B28600D98DF
:1004A0000880D7E02868286050F8042B28600D9851
:1004B000C117C2E90001CDE02868286050F8041B8C
:1004C00028600D980870C5E02868286050F8041B63
:1004D00028600D980860BDE02868C01D20F0070264
:1004E0002A60D2E9000108322A60CDE90201002920
:1004F00003D5012007902D200CE0BDF840008107B6
:1005000003D5012007902B2004E0C00704D501206B
:10051000079020208DF85000079914A8081805901E
:10052000214602A800F08CFB94E09DF842206C2A42
:100530000DD0712A18BF6A2A09D12868C01D20F081
:1005400007032B60D3E9000108332B6005E029681D
:10055000296051F8040B29600021CDE90201682AC5
:1005600008BF80B207D0622A08BFC0B203D0742A85
:1005700018BF7A2A02D10021CDE902019DF840007E
:10058000000730D5DDE90201002908BF00282AD084
:1005900044F02000782826D130208DF850008AF8C9
:1005A0000140022007901EE029469DF8420000F01D
:1005B00003F9CDE90201002904DA0798411C0791EB
:1005C0002D210EE0BDF84000810704D50798411C9D
:1005D00007912B2105E0C00705D50798411C07911D
:1005E000202100F80A10079914A808180590214640
:1005F00002A800F0A1FA2DE09DF842006C2809D075
:10060000012007902868286050F8041B28608DF8A6
:1006100050101FE001AA2868286050F8041B2860C9
:10062000ADF804100020ADF806004FF0FF300E903A
:1006300002A9404600F0F7F800280BD5AEE00120F3
:10064000079025208DF8500024B10798411C079190
:1006500000F80A400F980799401A0A99401A089919
:10066000401A0B99401A0999401A0C99441A9DF89E
:100670004000400710D420208DF80000002609E03B
:10068000012300AA02A9404600F001FE002840F024
:100690008580761CA642F3DB079E0DF1500B0AE025
:1006A0001BF8011B0498C0470490002876D00D98D1
:1006B000401C0D90761E002EF2D130208DF80000E7
:1006C0004FF0000B0A9E09E0012300AA02A9404650
:1006D00000F0DDFD002861D10BF1010BB345F3DB28
:1006E000089EDDF814B00AE01BF8011B0498C0470F
:1006F0000490002852D00D98401C0D90761E002EBC
:10070000F2D130208DF800004FF0000B0B9E09E075
:10071000012300AA02A9404600F0B9FD00283DD1FE
:100720000BF1010BB345F3DB05980899099E01EB2A
:10073000000B09E01BF8011B0498C047049068B344
:100740000D98401C0D90761E002EF3D130208DF8B0
:1007500000004FF0000B0C9E08E0012300AA02A944
:10076000404600F094FDC8B90BF1010BB345F4DB32
:100770009DF8400040077FF51CAD20208DF800005B
:10078000002600E0761CA642BFF613AD012300AAA6
:1007900002A9404600F07BFD0028F3D04FF0FF3067
:1007A00025B0BDE8F08F0000000000000000000050
:1007B000686A6C747A4C0000622826D068281DD0C4
:1007C0006A2808D06C2827D0712804D0742823D038
:1007D0007A280CD020E00868C01D20F007000860CF
:1007E000D0E90023083008601946104670470A68AF
:1007F0000A6052F8040B0A60002170470A680A6018
:1008000052F8040B0A6000B20BE00A680A6052F862
:10081000040B0A6040B204E00A680A6052F8040B54
:100820000A60C11770472DE9F44F0D4694B0D5F812
:1008300030B08046BBF1000F48BF6FF0004B00F0B6
:10084000C3FD696B401801900FF67020D0E90023BA
:10085000CDE9022395F83800400702D401984128D9
:1008600006D240200DF1100A01904FF0000909E076
:1008700000F0B0FD5FEA000AF7D14FF0FF3058E119
:10088000ABEB040BBBF1010FC0F2CD8014980188D3
:1008900002AA0DF1010000F0F5FD0446002800F168
:1008A000D5801498008810B9641E00F1CF80A3454C
:1008B000C0F2B980686901992218914280F0A18044
:1008C000C5F834904042296A401AA969401A696AF9
:1008D000401AE969401AA96AA0EB010995F83800A5
:1008E000400710D420208DF80000002609E00123E5
:1008F00000AA2946404600F0CAFC002840F0A68025
:10090000761C4E45F3DB6E6957460BE017F8011B6A
:10091000A868C047A860002800F09880E86A401CDA
:10092000E862761E002EF1D130208DF800000027FD
:100930002E6A09E0012300AA2946404600F0A7FCE0
:10094000002840F083807F1CB742F3DBAE69EF687C
:100950000AE017F8011BA868C047A860002875D0F6
:10096000E86A401CE862761E002EF2D130208DF835
:10097000000000276E6A08E0012300AA29464046CD
:1009800000F085FC002861D17F1CB742F4DBE868E9
:10099000A969EE690F180AE017F8011BA868C0479B
:1009A000A860002852D0E86A401CE862761E002E3B
:1009B000F2D130208DF800000027AE6A08E0012354
:1009C00000AA2946404600F062FC00283ED17F1C68
:1009D000B742F4DB95F8380040070ED520208DF89B
:1009E0000000002607E0012300AA2946404600F047
:1009F0004EFC58BB761C4E45F5DB4FF00009C5F8A0
:100A00001490224668690DF10101504400F048FD40
:100A10006869201868611498801C1490801E0088F2
:100A200000287FF42DAF686B6969401A296A401A63
:100A3000A969401A696A401AE969401AA96A471AFD
:100A400095F83800400710D400240CE04FF0FF392F
:100A500068E0A8682021C047A8600028F6D0E86AAE
:100A6000401CE862641CBC42F3DB6B6952462946B9
:100A7000404600F00CFC0028E8D12C6A002609E072
:100A8000A8683021C047A8600028DFD0E86A401C71
:100A9000E862761CA642F3DBAB69EA682946404669
:100AA00000F0F5FB0028D1D16C6A002609E0A868A7
:100AB0003021C047A8600028C8D0E86A401CE8621E
:100AC000761CA642F3DBE868A969EB690A18294697
:100AD000404600F0DCFB0028B8D1AC6A002609E0F3
:100AE000A8683021C047A8600028AFD0E86A401C41
:100AF000E862761CA642F3DB95F8380040070DD576
:100B0000002409E0A8682021C047A86000289DD0E3
:100B1000E86A401CE862641CBC42F3DBC5F8149030
:100B2000C5F8349004A882451CBF504600F0F4FC80
:100B3000484615B0BDE8F08F2DE9FA4E05460A4645
:100B40002F696F2A08BF082405D041F020007828BB
:100B500014BF0A241024D5E900013C2681468A46A8
:100B6000642A18BF692A05D1002903DAD9F10009DE
:100B70006AEB4A0ABAF1000F08BFB9F1000F0CD1B5
:100B8000286B50B9082C36D195F83800000732D5BB
:100B900030203B2687F83B002DE0E31748465146BE
:100BA000224600F0F9FCA4FB0023A9EB020230323C
:100BB000A6F1010BD2B25E463A2A03DB9DF8003063
:100BC000513B9A180BF8072081465FEA010A08BFDB
:100BD000B9F1000F03D0E868F1198842DDD3082C81
:100BE00009D195F83800000705D5F05D302802D00E
:100BF000761E3020F055C6F13C00A861F119E9607D
:100C0000296B884208DA081A28624FF6EF71288F9C
:100C100008402887BDE8F38E00290ED595F83810D6
:100C200001F01401102908D1696B6A69891A2A6ACE
:100C3000891A081A0128A8BF2862BDE8F38E0000AF
:100C40002DE9F24F04468EB0D4E90001CDE902014E
:100C500004AF9DF8380040F0200BBBF1610F0AD0C3
:100C6000206B002848BF062004D408BFBBF1670FE3
:100C700001D1012020636168C1F30A5040F2FF7284
:100C800090421CD1080304BF2068002809D103202A
:100C9000A0619DF8380061381A2836D30FF2306110
:100CA00008E00320A0619DF8380061381A2829D394
:100CB0000FF21461E068032200F0F2FBBEE10128AC
:100CC00016DA204600F0DFFC012811DB00250020A9
:100CD000BBF1610F20D1E168302201F8012B4A1CE1
:100CE000E2609DF83820612A0CBF782258220FE07C
:100CF000626840F2FE3161F31E52451A62604FF0A5
:100D0000FF30E5E70FF2BC51D4E70FF2C051D1E755
:100D10000A706169891C616110B90026002584E1AF
:100D2000BBF1610F40F09780206B00284CBF21265B
:100D3000461CDDE90201D4E900AB0022002336B2F3
:100D400000F0C2FC06F101083ABF8BF00040CDE98B
:100D500002A0CDE902AB2D1F8DF810200DF1110777
:100D600000E0C71DB8F1010F33DBDDE9020100220D
:100D7000002300F0C1FC2CD21C2102A800F0D4FCFE
:100D8000DDE9020100F05AFDA8F107088146B8F13B
:100D9000010F09DB00F07EFD02460B46DDE9020192
:100DA00000F090FDCDE90201F81D072105E009F0F2
:100DB0000F0200F8012D4FEA2919B9F1010F01DBEB
:100DC000491EF4D5491E5CBF002200F8012DF9D55B
:100DD000C7E70DF11100391A0DF11107B142B8BF83
:100DE0000E4636B230002FD4884206DA04A94118E4
:100DF00049780829A8BF0F2100DA002104AA821827
:100E000000E0761E12F80139401E8B42F9D00F29FE
:100E100004D104A941184A78521C4A70002802D50E
:100E200004AF761C2D1D36B2701E0DD4C1190A7880
:100E30003032D2B23A2A03DB9DF838303A3B9A1866
:100E400001F80129401EF2D5206B002840F1ED8009
:100E5000701E2063E9E0DDE902010022002300F0BA
:100E600033FC3CBF81F00041CDE902012DB247F2D5
:100E7000975068434B49DFF8309190FBF1F52DB264
:100E8000C5F1070A9046BAF1010F1CDBDDE90267E4
:100E90005FEACA7007D542464B463046394600F0F5
:100EA000D1FD06460F464FEA6A0A40464946424689
:100EB0004B4600F0C7FD80468946BAF1000FE7D1E6
:100EC000CDE9026724E0CAF1000A0026374F14E09A
:100ED0005FEACA7007D542464B463046394600F0B5
:100EE000B1FD06460F464FEA6A0A40464946424669
:100EF0004B4600F0A7FD80468946BAF1000FE7D1C6
:100F0000DDE9020132463B4600F06EFECDE902010A
:100F1000BBF1660F0CBF05F10A000620216B4618D5
:100F2000142EA8BF132630208DF810000DF11107E4
:100F3000DFF87C90012E3DDBDDE9020100F094FC3E
:100F400007F1080104220A23B0FBF3F303EB830744
:100F5000A0EB4700303001F8010D0A20B3FBF0F0A0
:100F600000EB8007A3EB4703303301F8013D521E2D
:100F7000E9D1083E01F10807012EDBDBDDE90201C2
:100F800000F072FC00F090FC02460B46DDE9020125
:100F900000F098FC00224B4600F054FDCDE9020120
:100FA000CAE700BFA0860100000024400000F03F17
:100FB00084D797410DF11100381A0DF1110702E0A5
:100FC000401E6D1E7F1C39783029F9D0BBF1660FA9
:100FD00002D12DB2691C04E0BBF1650F0CBF0121E9
:100FE0000021226B8E1836B2B042B8BF064636B228
:100FF00031001AD4814204DAC85D3528A8BF3920EF
:1010000000DA3020CA19521E00E0761E12F80139AB
:10101000491E8342F9D0392802D1C85D401CC85509
:10102000002902D57F1E761C6D1C2DB29DF838104C
:10103000009533B23A46204600F003F80FB0BDE801
:10104000F08F2DE9F04786B006468A4690461D4649
:1010500000F00BFF406A376B90F80090012D02DA28
:1010600001250FF270284AF02000BDF938406628AB
:1010700008BF641C12D0672876D114F1040F79DB05
:10108000BC4277DA96F83800641C000702D4BD42EF
:10109000B8BF2F4624B23F1B48BF0027F068B16994
:1010A00024B2012C21DA30234A1C0B54012F03DA1D
:1010B00096F83810090702D502F80090521CB26168
:1010C000E742B8BF7C4224B26142E7197162AF4285
:1010D000B8BF3D462DB2F5612A46B369414618189E
:1010E00000F0DEF9781BB062BAE00818A54216DA03
:1010F0002A46414600F0D4F9B1696918B161601B14
:101100007062012F03DA96F83800000705D5F06801
:1011100001F80090F069401CF061B762A0E022463F
:10112000414600F0BDF9B06920182D1B012F03DAEC
:1011300096F83810090703D5F16800F80190401CB3
:101140002DB2B061AF42B8BF3D46F068B3692DB271
:101150002A4604EB0801181800F0A2F9B069281813
:10116000B061781B70627BE0BAF1610F14D14FF06F
:10117000700A16E0BD4204DA96F83810090758BF25
:101180002F467F1E48BF0027BAF1670F14BF4FF0EC
:10119000450A4FF0650A04E0BAF1410F08BF4FF06D
:1011A000500AB169F06818F8013B0B544A1C012F32
:1011B00005DA96F83810090758BFB26115D502F85C
:1011C0000090531CB361012F0FDB6D1E2DB2AF4297
:1011D000B8BF3D462DB22A464146181800F060F9C6
:1011E000B0692818B061781B7062F068B16901EBD2
:1011F0000008200008F801AB03D42B2008F8010BED
:1012000003E02D2108F8011B6442002502AF08E02D
:101210000A2200A800F042FE019807F8010B6D1C9D
:10122000009C21B20129F3DA022D06DA4AF02000EF
:10123000652804BF302008F8010B4DB9302008F8AC
:10124000010B07E06D1E02A8285C303008F8010B86
:10125000012DF7DAF068B1690818A8EB0000F06119
:1012600096F8380000F0140010280DD17069B169AB
:101270000818716A0818F1690818B16A0818716BC2
:101280008842BCBF081A306206B0BDE8F087F8B5E6
:1012900004460D4616461F46002004E0E86A401C3E
:1012A000E8627F1E002047B116F8011BA868A0471E
:1012B000A8600028F2D14FF0FF30F2BD000000001E
:1012C000000000006E616E004E414E00696E6600C7
:1012D000494E46003000F8B504460D4616461F46F6
:1012E00000F0EDFD3B4632462946204601B0BDE800
:1012F000F04000F0FABD50F8041B61B150F8042B27
:10130000D30744BFA9F101039A18002342F8043B14
:10131000091FFAD1EFE770470278C9B28A421AB1C1
:101320001CBF10F8012FF9E718BF002070470268B2
:10133000531C03601170704700F10103810704D052
:1013400010F8011B89B18107FAD10268B2F10131AD
:10135000914311F0803F04BF50F8042FF6E710F8D6
:10136000011B11B110F8011BFBE7C01A7047000008
:10137000C9B2830706D0521E22D310F8013B99420E
:10138000F7D11FE0083A13D302F1040241EA012128
:1013900041EA014150F8043B121F21BF4B40A3F129
:1013A000013C2CEA030C1CF0803FF3D0C9B2001FB3
:1013B000083210F8013B521E28BF91EA030FF8D8FB
:1013C00018BF0120401E704780B500F078FD012055
:1013D00002BD000070B5054605F10F00C408E40029
:1013E000C046C046A54232D2082C04D2082402E0EE
:1013F000083000F091F82248026811000CD1011D5C
:101400000A6802B31368A34238BF111DF8D310E075
:101410001D68A5420DD2191D0B68002BF8D112686A
:10142000011D00E0191D0B6893420CD01D68A542F8
:10143000F8D361B10D682A68A2F10803A3420AD269
:101440006A680A600FE000F073FD0028D0D1C04642
:10145000C046002070BD63190B60121B6E685E6091
:101460000B681A602C60096800291DBF4A68002AB1
:10147000091D00210160C046C04605F1080070BD8D
:10148000BC08002070B504460D46164600F017FD56
:10149000324629462046BDE8704000F019BD0000E4
:1014A00062B38B0708D0521E11F8013B00F8013BD4
:1014B00000F024808B07F6D1830740F0208000BF26
:1014C000103A07D330B4B1E83810103AA0E8381019
:1014D000F9D230BC530724BFB1E80810A0E80810C7
:1014E00044BF51F8043B40F8043BD20724BF31F815
:1014F000022B20F8022B44BF0B7803707047083A88
:1015000007D3B1E80810083A40F8043B40F804CB90
:10151000F7D25307E4E7000000B9704738B5A0F1EF
:1015200008042068082833D310F0070F30D1C046D4
:10153000C0461848416809B18C4203D261604460DA
:1015400017E019464B680BB1A342FAD30B685D183C
:10155000AC421BD3A54204D12268D2180A600C46C3
:1015600007E04A681AB123681B199A420ED36260D9
:101570004C60616851B1226813198B4206D1002377
:10158000036008688018206048686060C046C046F4
:1015900031BD0000BC0800201B4213D1094236D1E6
:1015A0002AB18446B0FBF2F002FB10C2704700F093
:1015B000D5BCFCD30022002370470B0002000021A1
:1015C00000207047904271EB030CF6D370B5B1FA6E
:1015D00081F4B3FA83F52C1BA340C4F1200532FA41
:1015E00005F63343A2405FF00046E64002E05B08A8
:1015F0005FEA3202841A71EB030524BF20462946B4
:101600007641F4D302000B003000002170BD012AA6
:10161000CFD970B5140C20D0B1FA81F4B2FA82F5AA
:10162000C4F120046419B4F12006D6D3B2405FF0AF
:101630000044F440002502E052085FEA3303C61A72
:1016400071EB020E24BF3046714664416D41F3D305
:1016500002000B002000290070BD0C46B1FBF2F126
:1016600002FB11452D0445EA1045B5FBF2F402FBDF
:10167000145580B240EA0545B5FBF2F002FB10526A
:1016800040EA044070BD30B4436803F000420121D9
:101690001B031B0B436004BF0368002B08D10DE044
:1016A0000368DD0F45EA440444605B000360491EA3
:1016B0004468E302F4D523031B0B436043681A43D9
:1016C0004260084630BC70474FF4001C1CEB410FD1
:1016D00094BF1CEB430F09E041EA030C50EA4C0CA9
:1016E00052EA0C0C03D2994208BF9042704714BFD3
:1016F0008B428242704700004FF4001C1CEB410FEC
:1017000094BF1CEB430F09E041EA030C50EA4C0C78
:1017100052EA0C0C03D28B4208BF8242704714BFBE
:10172000994290427047000070B504460D466068CB
:10173000C0F30A5040F2FF71884207D1606800038D
:1017400004BF2068002817D0022070BD20B92046B1
:10175000FFF799FF012867DA012D0FDB40F2FF71D7
:10176000091A8D420AD3606800284CBF9FED2F0BE9
:101770009FED300B84ED000B012070BD4142A9426A
:10178000616806DA6FF31E51401941EA005060604B
:1017900041E0401E63680122451962F31F5305F1C1
:1017A000350001F000416360352803D361600020FB
:1017B000206070BD002215F11F0F04DA226823603B
:1017C000002020356060684213D0521E2568924187
:1017D000C0F12003D2439D4045EAD2722568666875
:1017E000C54006FA03F32B432360636823FA00F035
:1017F0006060606808436060B2F1004F03D80DD1AB
:101800002078C0070AD52068401C2060206828B9CD
:101810006068401C60604FF0FF3070BD60688842B7
:1018200004BF20680028F6D1002070BD0000000031
:101830000000F0FF000000000000F07FF446400DC3
:1018400040EAC120490006D200F014F8004248BF27
:101850006FF00040604700F00DF84FF00041884203
:101860008CBF084640426047400D40EAC120490015
:1018700080F00D8040F00040490DA1F58061491CC9
:1018800005D4D1F11F0154BFC840C01770474FF0B5
:1018900000007047010040F10980F446404200F02A
:1018A00005F851F000416047010000BF09D0B0FACF
:1018B00080F18840C91CC1F58461090501EBD02184
:1018C0004005704770B44FF0004591EA030F44BFE4
:1018D0006B4000F04FBB00BF841A71EB030604D2CB
:1018E0006E40001BB141121973414FF4001C1CEBF8
:1018F000410F34BF7CEB430684E00C0DA4EB135680
:10190000362E7DDC012E43DC45EAC32343EA5253E5
:1019100012BFD20292025B08240545EAC12141EAC6
:101920005051D2EBC020994125D407D1B0FA80F6AE
:1019300010FA06F164D00020203608E0B1FA81F6F2
:10194000B140C6F1200220FA02F21143B0404FEA42
:10195000F474B4EB465434F001064FEA74040AD828
:10196000D6F50016760D04F00044F04061FA06F258
:101970005040F1404840C00A40EA415021F0004147
:1019800028BF5FEA500550F1000044EBD12137E059
:1019900045EAC323DB0A45EAC121C90AB6F120059D
:1019A0000EDD42EA0242120CC5F1200603FA06F6E9
:1019B000EB4042EA06056D42984161F100010DE0FD
:1019C00062FA06F5F240554063FA06FC82EA0C0220
:1019D000F3405A406D42904161EB030111F4801FC6
:1019E00005D1641E620502D06D004041494121F4D9
:1019F0008011430875F1004350F1000041EB0451A0
:101A000070BC70471CEB410F15D223F0004352EA23
:101A100043060BD04FEA4C0CBCEB410F04D80C0D25
:101A2000661E342EB7DDEBE7801A994150EA410675
:101A300008BF0021E4E708BF1CEB430F28BF6FF08D
:101A40000001DDE7B0B581EA030C0CF0004C40F278
:101A5000FF7515EA11541DBF15EA1357AC42AF428A
:101A600039E0E41923EA455343F48013C90241F0F5
:101A7000004141EA505EC7021100A7FB02020028A4
:101A80004FF00000EEFB01204FF00001E3FB0721C7
:101A900018BF42F00102401800214941E3FB0E014A
:101AA000A4F580640F0302D252004041494154F131
:101AB00001046CDD470872F1004250F1000051EB67
:101AC0000451A1F580115CBF41EA0C01B0BD4CEAA4
:101AD00005510020B0BD05EA1357AC4214BFAF4218
:101AE00041E050EA410E1CBF52EA430E02E061465B
:101AF0000020B0BD24423C441BD15FEA070EF6D063
:101B0000090302BF01460020AEF1140EB1FA81F7BD
:101B1000AEEB070401FA07FE0C37C7F1200100FA0B
:101B200007F7C8404EEA000E23EA455343F48013FA
:101B3000A2E733F00043B3FA83F704BFB2FA82FEA0
:101B400077440B3FE41BB7F1200E2FBF02FA0EF3D0
:101B5000BB40C7F1200E22FA0EFE38BF43EA0E0347
:101B6000BA40641C82E750EA410E14BF52EA430EA9
:101B70006FF000014FF4001717EB430F8ABF1946AF
:101B800017EB410FB5E74CEA05510020B0BDD4F189
:101B90000104B4F120070FDAC4F12007520828BF6E
:101BA00042F0010210FA07F501FA07F7E1BF2A43F4
:101BB000E0403843E1400FE0352C98DCC7F12004C9
:101BC00052EA400220FA07F218BF42F0010231FA4D
:101BD00007F0A1400A43002172F1004250F10000D9
:101BE00051EB0C01B0BD0000F0B540F2FF7581EA89
:101BF000030C0CF0004C15EA11541DBF15EA1357E5
:101C0000AC42AF42E5E0BC41C1F31301C3F313039F
:101C1000801A994143F4801304D2641E4000494164
:101C200080185941C90241EA5051B1FBF3F603FB58
:101C30001611A2FB0675D7EBC020A94102D2761E71
:101C400080185941C90241EA5051B1FBF3FE03FB30
:101C50001E11A2FB0E75D7EBC020A94103D2AEF135
:101C6000010E80185941890241EA9051760546EAF1
:101C70008E2EB1FBF3F603FB1611A2FB0675D7EB14
:101C80008020A94102D2761E80185941C90241EA3A
:101C900050514EEA060EB1FBF3F603FB1611A2FB00
:101CA0000675D7EBC020A94102D2761E8018594193
:101CB000C90241EA5051B1FBF3F703FB1711A2FB34
:101CC0000735D3EBC020A94167F100070CBF0042E4
:101CD00047F0010766F3D5274FEA1E31B80814F51F
:101CE000806412DDBD0775F1004250EB0E5051EBE0
:101CF000045111F5801F5CBF41EA0C01F0BD4CF0AE
:101D00007F6141F0E0410020F0BDBD076D0840EA71
:101D10000E5041F48011D4F10104B4F120060ADA26
:101D2000C4F120060200E04001FA06F3E140184346
:101D3000B24015430EE0342C13DCC6F1200445EA12
:101D400040056D0820FA06F2154321FA06F0A1407D
:101D50000D43002175F1004250F1000051EB0C01E0
:101D6000F0BD00205FEA0C01F0BDCFB992185B41D5
:101D7000B3FA83F704BFB2FA82F6BF190B3FB7F18B
:101D800020062FBF02FA06F3BB40C7F1200622FA55
:101D900006F638BF3343BA401CB1E419641E33E77A
:101DA0007F4231F00041B1FA81F404BFB0FA80F60D
:101DB000A4190B3CB4F120062FBF00FA06F1A14094
:101DC000C4F1200620FA06F638BF3143A0403C1B80
:101DD0001AE7AC421ABF05EA1357AF4212E050EAC5
:101DE00041061CBF52EA4306BFE750EA41073046AE
:101DF00061461CBF41EA0551F0BD52EA430C08BFE1
:101E0000C143F0BD00204FF4001616EB410F98BF00
:101E100016EB430F08BF16EB410F24BFC14305E08B
:101E200016EB430F0CBF61464CEA0551F0BD0000B4
:101E300080B5134800F008F90FF2480101604160D5
:101E40008160C1600161416181610FF23C024262C7
:101E50008162C162016341630FF2300282630FF25B
:101E60003402C2630164416401BD10B5044800F04E
:101E7000EBF80446206808B9FFF7DAFF204610BDEA
:101E800000000020000000002E00000066616C735E
:101E900065000000747275650000000091FBF2F3AC
:101EA00003FB1211C0E900317047000010B5044671
:101EB000DFF8180000F0C8F850F8240010BD80B515
:101EC000DFF8080000F0C0F8806902BD9000002033
:101ED00030B430B90FF24800D0E90045C2E90045FE
:101EE0001BE00170012030BC704730B431B90FF2F3
:101EF0003800D0E90045C3E900450EE01AB930BC0E
:101F00006FF00100704708B10A7802800978481E16
:101F1000804130BCC043C00F7047002030BC7047C8
:101F200000000000000000000000000000000000B1
:101F30000749086808B1002070470648C008C0007B
:101F400008600549C908C900091A0160704700BF47
:101F5000380900205F290020584900207047000000
:101F600070B44FF0004591EA030C44BF6B40FFF79B
:101F7000B3BC00BF841A71EB030603D2001BB1414E
:101F8000121973414FF4001C1CEB410F34BF7CEB62
:101F9000430443E00C0DA4EB1356352E50DC45EA08
:101FA000C323DB0A45EAC121C912B6F120050DDDC4
:101FB00063FA05F6EB4086EA0305124218BF45F0C6
:101FC0000105C01851F100010CD213E062FA06F5C8
:101FD000F2405540F3415A40B340F3405A40801814
:101FE000594107D349085FEA30005FEA350528BF49
:101FF00045F0010501F58011420875F1004250F1EC
:10200000000041EB045170BC4FF4001C1CEB410F6D
:1020100038BF70470020090D090570471CEB410FC0
:1020200010D252EA43060BD0BCEB410F05D80C0D81
:10203000AB43661E342EB5DD02E0AB438018594138
:1020400070BC704770BC70477047000090ED000A8C
:10205000D0ED000A20EE200A81ED000A90ED000A82
:10206000D0ED010A20EE200A81ED010A90ED000A70
:10207000D0ED020A20EE200A81ED020A90ED000A5E
:10208000D0ED030A20EE200A81ED030A90ED010A4B
:10209000D0ED010A20EE200A81ED040A90ED010A3C
:1020A000D0ED020A20EE200A81ED050A90ED010A2A
:1020B000D0ED030A20EE200A81ED060A90ED020A17
:1020C000D0ED020A20EE200A81ED070A90ED020A07
:1020D000D0ED030A20EE200A81ED080A90ED030AF4
:1020E000D0ED030A20EE200A81ED090A704780B581
:1020F000DFF8481ADFF8480AFFF7A8FFDFF83C0AC4
:1021000090ED070AF0EE000AB7EE001A00EE601A32
:10211000DFF8280A90ED090AF0EE000A00EE601AD6
:10212000DFF8200A80ED001ADFF8100A90ED050AAA
:10213000DFF8080AD0ED030A30EE600AF0EE000A7C
:1021400020EE200ADFF8FC0980ED010ADFF8EC0937
:1021500090ED060ADFF8E409D0ED020A30EE200A1D
:10216000F0EE000A20EE200ADFF8D80980ED020A1E
:10217000DFF8C80990ED050ADFF8C009D0ED030AC1
:1021800030EE200AF0EE000A20EE200ADFF8B40953
:1021900080ED030ADFF8A40990ED040AF0EE000ACE
:1021A000B7EE001A00EE601ADFF8900990ED090A08
:1021B000F0EE000A00EE601ADFF8880980ED041ADC
:1021C000DFF8780990ED080ADFF87009D0ED010A10
:1021D00030EE600AF0EE000A20EE200ADFF8640913
:1021E00080ED050ADFF8540990ED060ADFF84C0986
:1021F000D0ED020A30EE600AF0EE000A20EE200A6E
:10220000DFF8400980ED060ADFF8300990ED080A92
:10221000DFF82809D0ED010A30EE200AF0EE000ABE
:1022200020EE200ADFF81C0980ED070ADFF80C0910
:1022300090ED040AF0EE000AB7EE001A00EE601A04
:10224000DFF8F80890ED070AF0EE000A00EE601AD9
:10225000DFF8F00880ED081A01BD000080B5DFF856
:10226000E808008800EE100AB8EE400ADFED110A17
:1022700080EE200ADFF8D40880ED010ADFF8C808F4
:10228000408800EE100AB8EE400ADFED0A0A80EE40
:10229000200ADFF8B80880ED000ADFF8AC08007902
:1022A00000B200F0FBFD00F0D3FCDFF8A40880EDE5
:1022B000000A01BD00401C4680B5FFF718FF01BDB4
:1022C00080B500F015FEF7EE000A80EE800A01BD31
:1022D00070B52DED108B84B0F0EE40FAB0EE608A50
:1022E000F0EE418AB0EE619A0400F0EE429AB0EE50
:1022F00062AAF0EE43AA0D00B0EE63BAF0EE44BA63
:10230000B0EE64CA1600F0EE45CAB0EE65DA28EE0B
:10231000080A08EEA80A09EE090A00F0E9FDF0EE45
:1023200040DA9FED8FEADFED8EEA9FED8DFAF6B28F
:10233000002E04D142E09FED8B0A7CEE80CA9FED17
:102340008A0AF4EE40CAF1EE10FAF4DA9FED870A39
:10235000F4EE40CAF1EE10FA04D59FED850A7CEE4A
:1023600080CAF3E7B0EE6C0A00F01CFCB0EE40EA65
:10237000B0EE6C0A00F06CFCF0EE400AB1EE4E0AD2
:10238000DFF8C00790ED001A20EE010ADFF8B4076D
:1023900090ED031A00EEC10ADFF8A807D0ED060A97
:1023A00020EE80EADFF89C07D0ED070A60EE80EAB5
:1023B000DFF89007D0ED080A20EE80FA2BEE0B0A2A
:1023C0000BEEAB0A0CEE0C0AEDB2002D4CD0DFED9B
:1023D000E50AB4EE600AF1EE10FA45DBFFF770FF94
:1023E0002BEE00BA6BEE80BA2CEE00CADFF8540771
:1023F00090ED000A20EE0B0ADFF84807D0ED010A45
:1024000000EEAB0ADFF83C07D0ED020A00EE8C0AC2
:10241000DFF83007D0ED030A20EE8BBADFF824078F
:10242000D0ED040A00EEABBADFF81807D0ED050ACC
:1024300000EE8CBA20EE000A0BEE0B0A00F058FDFD
:102440002BEE400ADFF8FC06D0ED060A00EE80EA2B
:10245000DFF8F006D0ED070A40EE80EADFF8E40688
:10246000D0ED080A00EE80FA29EEA90A0AEE0A0A5F
:102470000AEEAA0AE4B2002C38D0DFEDBA0AB4EEB4
:10248000600AF1EE10FA31DBFFF71AFF69EE809A6D
:102490002AEE00AA6AEE80AADFF8A80690ED080AE4
:1024A0002AEE000ADFF89C06D0ED070A0AEEE00AE1
:1024B00030EE0EEADFF88C0690ED060A2AEE800A6E
:1024C000DFF88006D0ED080A09EEE00A70EE2EEA89
:1024D000DFF8700690ED070A29EE800ADFF864063F
:1024E000D0ED060A0AEE600A30EE0FFADFF85C065D
:1024F00090ED000AB5EE400AF1EE10FA3ADD9FEDDC
:10250000C60AF4EE40DAF1EE10FA3FD5DFF83C06E9
:1025100090ED000A60EE0E0ADFF8380690ED001A22
:1025200000EEAF1ADFF82C0680ED001A60EE2E0ADE
:10253000DFF8240690ED001A00EEAF1ADFF8180657
:1025400080ED001A20EE0F0ADFF81006D0ED000A29
:1025500040EE2F0ADFF80406C0ED000A16E000BFC7
:1025600000000000DB0FC9C0DC0F4940DB0F49C091
:10257000DB0FC940DFF8DC0500210160DFF8D8057A
:1025800000210160DFF8D40500210160DFF8C405F7
:1025900090ED000A0DEE0E0A30EE088ADFF8B8055D
:1025A00090ED000A0DEE2E0A70EE288ADFF8AC05D9
:1025B00090ED000A0DEE0F0A30EE099AB6EE000A11
:1025C0002FEE800A20EE088AB6EE000A2FEE800A6F
:1025D00060EE288AB6EE000A2FEE800A20EE099AF5
:1025E000DFF85C0500680090DFF854054068019052
:1025F000DFF84C0580680290DFF84405C06803905E
:102600009DED010AB1EE400A20EE080ADDED020A56
:1026100000EEE80ADDED030A00EEC90ADFF8200546
:10262000D0ED000A30EE200ADFF8140580ED000A34
:102630009DED000A20EE080ADDED020A00EE890A8F
:10264000DDED030A00EEE80ADFF8F404D0ED010A3C
:1026500030EE200ADFF8E80480ED010A9DED000A63
:1026600020EE280ADDED010A00EEC90ADDED030ABD
:1026700000EE880ADFF8C804D0ED020A30EE200A26
:10268000DFF8BC0480ED020A9DED000A20EE090A85
:10269000DDED010A00EEA80ADDED020A00EEC80A2F
:1026A000DFF89C04D0ED030A30EE200ADFF8900436
:1026B00080ED030ADFF8880490ED000ADFF880045B
:1026C000D0ED000A20EE200ADFF87404D0ED010AF4
:1026D000DFF86C0490ED011A00EE810ADFF8600467
:1026E000D0ED020ADFF8580490ED021A00EE810ADC
:1026F000DFF84C04D0ED030ADFF8440490ED031A30
:1027000000EE810AFFF7DCFDDFF83404D0ED000AAB
:1027100060EE800ADFF82804C0ED000ADFF820042C
:10272000D0ED010A60EE800ADFF81404C0ED010A62
:10273000DFF80C04D0ED020A60EE800ADFF8000436
:10274000C0ED020ADFF8F803D0ED030A20EE800A9C
:10275000DFF8EC0380ED030AFFF7C9FC04B0BDEC21
:10276000108B70BD0BD7233C80B5DFF8D803D0EDBC
:10277000080ADFF8D00390ED070A00F071FADFEDE8
:102780009C0A20EE200A00F0C1FBDFF8D413088079
:10279000DFF8B00390ED060AB1EE400A00F0F6FA59
:1027A000DFED940A30EEC00ADFED910A20EE200A38
:1027B00000F0ACFBDFF8A8134880DFF88803D0ED09
:1027C000000ADFF8800390ED030A00F049FAB1EE49
:1027D000400ADFED870A20EE200A00F097FBDFF8C1
:1027E00080138880DFF87803B0F90400002807D54B
:1027F000DFF86C03808810F56160DFF8641388806F
:10280000D34890ED000ACF48D0ED080AB4EE600A34
:10281000F1EE10FAFFD401BDC2B8B23E9FED9F0A9F
:10282000002106E050F8212000EE902A00EEA00AD8
:10283000491C0329F6DBCB48D0ED000AC94890EDCE
:10284000001A60EE810A20EE800ADFED950AB4EEF0
:10285000600AF1EE10FA08DBDFED920AB4EE600ACE
:10286000F1EE10FA01D5012000E00020C0B270475F
:10287000BD490968002903D1BC490918BA4A116049
:10288000B9490968884202D2B3EE090A02E0AF48AA
:1028900090ED010A70470000F8B52DED028B86B06F
:1028A00004000025002600279FED7C8AB0480068C0
:1028B000201A08EE900AAE48046000F092FB00284F
:1028C00015D00026AB4800680390AA4840680490E1
:1028D000A84880680590A74800210160A54800210C
:1028E0004160A44800218160A3480460FFE700A87C
:1028F00001F08EF8002843D0A04801F07CFA0028AF
:1029000003D09E48FFF78AFF050000AA2900C9B23C
:102910002000FFF7ADFFF0EE405AB0EE485A3A0003
:10292000D2B2DDED054A9DED044ADDED033A3100FA
:10293000C9B2924890ED023A9048D0ED012A8F48F2
:1029400090ED002A2800C0B29DED020ADFED770A63
:1029500060EE201A9DED010ADFED740A20EE201AC8
:102960009DED000ADFED710A60EE200AB8EE680AFC
:102970009FED6F6A20EE060AFFF7AAFCFFF7F4FE50
:1029800006B0BDEC028BF1BD80B5764991F83010F0
:10299000002902D0FFF780FF08E072480021416261
:1029A0007048002181626F480021C16201BD80B57D
:1029B00001F075FAFFF7E8FF01BD38B50400704873
:1029C0000078002813D001F06AFA0500280000F012
:1029D000C8FF6C49280001F0AFF91920B4FBF0F1F1
:1029E00000FB1140002802D1280000F017FB31BD88
:1029F0004C3D0F44DB0FC93F10B5002401F040FAF5
:102A000001F06AFA0C226049604801F04AFF4FF475
:102A10007A7001F03CFA00205D490870002001F056
:102A200032FC002838D000F080FF4FF47A7001F0BB
:102A30005CF803E041F2883001F029FA00F096FAE0
:102A4000002803D1641C042CF4D325E0FFF734FCE8
:102A500000210020FFF702FC012049490870642092
:102A600001F015FA012000F011FE002400F0DAFD5B
:102A700000280BD1012001F00AFA641C2000FFF7A6
:102A80009CFF42F211708442F0D305E0642001F013
:102A9000FEF901203E49087010BD00000000000052
:102AA0002A5C4F3F48E19A3F80B5394800780028BA
:102AB0003AD03848006838490968884234D03648E6
:102AC00000683449086035480068FFF776FF3348EE
:102AD0000068401C314908600A21B0FBF1F201FB9B
:102AE0001200002820D1FFF762FF1D48B0F9040052
:102AF000404200EE100AB8EEC00AF2EE040A80EE80
:102B0000200ADFED0A0A9FED0B1A00EE201AB1EE43
:102B1000410ADFED090A20EE200ADFED060A80EE09
:102B2000200A1F4880ED000A01BD000035FA8E3CE6
:102B3000BD378635DB0F494000003443FC000020E0
:102B40003C0100201C0700205C0100208C080020B4
:102B5000F8080020FC0800200009002004090020DB
:102B600094080020900600200809002020A10700FA
:102B70000C090020DC070020100900202C08002090
:102B80004F09002014090020380800200000060822
:102B90005009002020090020280900201C090020DD
:102BA00018090020FDEEC00A10EE900A20304128DE
:102BB00006D39FED8B0A49E0DFED8A0A30EE200A4A
:102BC000DFED890AB4EE600AF1EE10FAF4DADFED17
:102BD000870AB4EE600AF1EE10FA04D5DFED840A3C
:102BE00030EE200AF3E7DFED830AB4EE600AF1EE7F
:102BF00010FA08DBDFED800A30EE200ADFED7F0AF5
:102C000030EEC00A0EE0DFED7C0AB4EE600AF1EEB1
:102C100010FA07D5DFED790A30EE200ADFED760AEB
:102C200030EEC00A60EE000A20EE201ADFED6C1ACA
:102C30009FED962A00EEA12ADFED9D1A42EE201AA2
:102C40009FED9C2A01EEA02A01EE020A70470000C7
:102C500080B5DFED6A0A30EE200AFFF7A3FF01BD61
:102C600038B52DED088BB0EE409AF0EE609AF0EE9C
:102C7000E9AAB0EEC9BA1BEE100A01F051FE41EC10
:102C8000110BB0EE418AF0EE618A1AEE900A01F063
:102C900047FE41EC100BB0EE481AF0EE681A01F056
:102CA00090FE51EC100B01F097FE0AEE100AB5EE03
:102CB00040AAF1EE10FA28D01BEE100A01F030FE07
:102CC00041EC110BB0EE418AF0EE618A1AEE900AE7
:102CD00001F026FE41EC100BB0EE481AF0EE681A37
:102CE00001F0ECFE51EC100B04000D001AEE100A7E
:102CF00001F016FE02000B0020002900FEF774FF11
:102D000001F06AFE0AEE100A01E09FED35AA9FED80
:102D10006A0ADFED6A0A4AEE000A9FED690A00EED0
:102D20008A0ADFED680A40EE0A0A9FED670A00EEA4
:102D30008A0AB1EE400ADFED650A9FED651A0AEED8
:102D4000201AF7EE000A41EE0A0A80EE20AAF4EEFD
:102D50004BAAF1EE10FA03D59FED280A30EE4AAAED
:102D6000F5EE409AF1EE10FA03D59FED5A0A30EED7
:102D70004AAAB5EE409AF1EE10FA01D5B1EE4AAA90
:102D8000B0EE4A0ABDEC088B31BD000080B52DEDD8
:102D9000028BB0EE408AB0EEC80ADFED4F0A9FED1D
:102DA0004F1A00EE201ADFED4E0A41EE000ADFED69
:102DB0004D8A40EE808AF7EE000A30EEC00A00F03D
:102DC00097F828EE800AB5EE408AF1EE10FA04D5A5
:102DD000DFED400A30EEC00AFFE7BDEC028B01BD1B
:102DE00000000000DB0FC9C0DC0F4940DB0F49C009
:102DF000DB0FC940DC0FC93FDB0FC9BFDB0FC93F89
:102E00000021016170470169491C016101690129C3
:102E100006D180ED010A416801600021816021E056
:102E2000D0ED000A70EE600A90ED041AB8EEC11AF7
:102E3000C0EE810A90ED001A70EE810AC0ED010A21
:102E4000D0ED000A70EE600A90ED011A30EE410AF2
:102E500090ED021A00EE801A80ED031A41680160BD
:102E6000C168816070470000016902290ADB0169BD
:102E7000491E00EE101AB8EEC00AD0ED030A80EE2B
:102E8000800A01E09FED180A7047000092E741B9FF
:102E900080B5FFF7E9FF00F02BF801BD00B200EEAE
:102EA000100AB8EEC00ADFED110A20EE200A7047C2
:102EB0009730083C15A82ABE39094E3DE3B59EBEA1
:102EC00088FA16BE45FE7FBFA7DFA8B499FB243F52
:102ED00069A2163EDB0F4940306E99BC2716983D1B
:102EE000843459BEA40DC93F0000000035FA8E3C61
:102EF000B5EEC00AF1EE10FA02D4B1EEC00A704786
:102F00006FF0004C00EE10CA01F0E2BD80B58DED0F
:102F1000000A0098C0F3C750FF2818D010B90098D5
:102F2000400218D001F0DAFDDFED0C0AB4EE600AC1
:102F3000F1EE10FA0BDBDFED0A0AB4EE600AF1EEF7
:102F400010FA04D5BDEEC00A10EE100A02BD01F061
:102F5000D7FD21210160002002BD0000000000CF4C
:102F60000100004F80B501F04BFB02BD80B5A648C3
:102F70000021C16000A9A548FFF7F4FF002801D196
:102F800000202DE00020002100B200EE100AB8EE73
:102F9000C00A09B200EE901AF8EEE00A9FED981A06
:102FA00000EE810AF2EE040A20EE200A964880ED37
:102FB000030A9648954909688847012094490860A2
:102FC0009448C088944909680880924800899249C9
:102FD000096848808F4840898F49096888800120A6
:102FE00002BD894890ED000AB5EE400AF1EE10FAF4
:102FF00011D0854890ED010AB5EE400AF1EE10FAC5
:1030000009D0814890ED020AB5EE400AF1EE10FABF
:1030100001D0012000E00020C0B2704710B50400CC
:103020007E497A48794A52689047002800F0E68045
:1030300000200CE0794931F9101000EE101AB8EEBA
:10304000C00A714911EB800181ED000A401C032880
:10305000F0DB6C480068012826D17148046000202C
:103060001DE000216C4A126822F81010664911EB2D
:10307000800191ED000ABDEEC00A10EE101A694AF7
:1030800022F81010604911EB800191ED000ABDEEAD
:10309000C00A10EE101A644A22F81010401C0328CF
:1030A000DFDB0220574908605948006800282FD00C
:1030B00059480068B0F9000000EE100AB8EEC00AE6
:1030C0005148D0ED000A30EEC00A4F4880ED000AAA
:1030D00051480068B0F9020000EE100AB8EEC00ACC
:1030E0004948D0ED010A30EEC00A474880ED010A98
:1030F00049480068B0F9040000EE100AB8EEC00AB2
:103100004148D0ED020A30EEC00A3F4880ED020A85
:1031100043480068002871D041480068201A43499C
:1031200088423ED20020032868DA3E4931F9101067
:1031300000EE101AB8EEC00A334911EB8001D1ED50
:10314000000AF4EE400AF1EE10FA0BD52E4911EB0D
:10315000800191ED000ABDEEC00A10EE101A314A4E
:1031600022F81010304931F9101000EE101AB8EEA4
:10317000C00A254911EB8001D1ED000AB4EE600AC6
:10318000F1EE10FA0BD5204911EB800191ED000A08
:10319000BDEEC00A10EE101A234A22F81010401C8F
:1031A000C1E700201E49086000200EE01D4931F9EA
:1031B00010101D4A32F910205118022291FBF2F131
:1031C000154A126822F81010401C0328EEDB00207C
:1031D0000C4908601048006800880E49C8800E48F5
:1031E000006840880B4908810B48006880880949BD
:1031F00048810C2207490E4801F021FB10BD000058
:103200008988883CC8080020DC070020B807002017
:10321000CC08002038080020680100207408002035
:10322000D00800207C0800208408002080C3C90149
:1032300000000608DFF830080078002840F086809B
:103240000120DFF8241808707D20DFF820180968B5
:1032500048833020DFF81418096808700320DFF86D
:103260000C18096848700020DFF800180968887099
:103270000020DFF8F817096848759620DFF8EC178A
:103280000968C8800020DFF8E41709688875FA200B
:10329000DFF8D817096808810020DFF8D01709681F
:1032A000C8700020DFF8C417096808710020DFF833
:1032B000BC17096848810020DFF8B01709688881C9
:1032C0000020DFF8A8170968C8810020DFF89C17E4
:1032D000096808820220DFF8941709680875002041
:1032E000DFF88817096848820120DFF8801709682D
:1032F000C87540F29E70DFF8741709680883C8200B
:10330000DFF86817096888834FF4FA70DFF85C17F4
:103310000968C8830320DFF85417096881F8200082
:103320000820DFF84817096881F821007820DFF8C5
:103330003C17096848849620DFF8301709688884AC
:103340000020DFF82817096881F82600DFF81C073D
:103350000068704738B50400FFF76CFF90F826004E
:1033600084F84103FFF766FFC078002801D00120F0
:1033700000E0002084F84A00FFF75CFF0500FFF73B
:1033800059FF6A788178200001F0C0FBDFF8E01671
:103390000860FFF74FFF807884F84B002000216819
:1033A0008847012084F84E00200000F004F931BD68
:1033B00080B500F093FF02BD2DE9F0412DED028BA9
:1033C00016001D000024002902D0012931D035E06B
:1033D00010F19C0710F1A004DFF89806DFF89016B2
:1033E0000968B0FBF1F8DFF8880690ED000AB8EE46
:1033F000400ADFEDB00A60EE200AADB200EE105ACE
:10340000B8EE400A01F09CFBB0EE408ADFF8680697
:103410003860ADB2002D32D0ADB2A8452FD3002E0A
:1034200002D0012E16D02AE0DFF8500638600025C1
:103430000DE010F5867710F58874CDE71FE0B0EE4B
:10344000480A242000FB054001F087FB6D1C032D7A
:10345000F5DB14E0DFF82806386000260DE0DFF821
:1034600010060168ADB200EE105AB8EE400A2420F2
:1034700000FB064001F08EFB761C032EEFDBBDEC5B
:10348000028BBDE8F081DFF8EC25DFF8E4351B683E
:10349000B2FBF3F280B2824205D289B2914201D2EC
:1034A000100000E0002080B2704770B52DED028B57
:1034B00004000D001600DFF8C005C4F87C013100DF
:1034C00089B2280080B2FFF7DEFF0500ADB2002D03
:1034D0002BD0B6B2002E28D0DFF8A405C4F87C01AA
:1034E000B6B200EE106AF8EE400AADB200EE105A25
:1034F000B8EE400A01F045FBB0EE408A002612E02B
:103500000122F0EE480ADFF868050168ADB200EE6E
:10351000105AB8EE400A242000FB064010F5C07097
:1035200001F052FB761C032EEADBBDEC028B70BD72
:1035300070B52DED028B04000D001600DFF8380584
:10354000C4F8EC01310089B2280080B2FFF79BFF7C
:103550000500ADB2002D2BD0B6B2002E28D0DFF87A
:103560002005C4F8EC01B6B200EE106AF8EE400A8D
:10357000ADB200EE105AB8EE400A01F002FBB0EE18
:10358000408A002612E00122F0EE480ADFF8E0044B
:103590000168ADB200EE105AB8EE400A242000FBDC
:1035A000064010F5F87001F00FFB761C032EEADBE5
:1035B000BDEC028B70BD38B50400FFF73BFEC5883B
:1035C000FFF738FE2B009BB2427D00212000FFF761
:1035D000F3FEFFF72FFE0500FFF72CFE2B89827DFF
:1035E00001212000FFF7E8FEFFF724FE0500FFF7AA
:1035F00021FEAA8941892000FFF757FFFFF71AFE35
:103600000500FFF717FE2A8AC1892000FFF790FF07
:1036100031BDD0F89800002801D1012000E0002041
:10362000C0B2704780B5DFF85C040068002804D1A0
:10363000DFF85404FFF7EDFFFFE702BD806C0128BF
:1036400001D1012000E00020C0B2704780B5FFF733
:10365000F1FD408B42F210714843DFF81414096801
:10366000B0FBF1F002BD10B50400FFF7EFFFA16C55
:10367000814201D1012000E00020C0B210BD10B590
:103680000400FFF7E3FFC4F8980010BD10B5040074
:10369000DFF8F803007804420AD1DFF8EC03FFF703
:1036A000EEFFE4B2002C03D00120DFF8E013087035
:1036B00010BD0000BD37863570B504000D00002632
:1036C00028E0FFF7C3FF00EE100AB8EEC00A14EBC3
:1036D0008600D0ED140A80EE800A14EB860080ED9F
:1036E000040A022E15D1FFF7A5FDB0F9120000EE75
:1036F000100AB8EEC00ADFEDC50A80EE200A14EB0E
:103700008600D0ED040A30EEC00A14EB860080ED8E
:10371000040A761C032E51DA14F15000FFF7A3FFC0
:1037200000280ED0002E14EB860000210165142025
:1037300000FB06405C30FFF763FB14EB86000021C2
:10374000016114EB4600B0F9400000EE100AB8EE3B
:10375000C00A14EB8600D0ED140A30EE200A14EBF8
:10376000860080ED140A14EB4600B0F9400000EE2C
:10377000100AB8EEC00A142000FB06405C30FFF7C8
:1037800042FB14F15000FFF759FF0028C1D014206C
:1037900000FB06405C30FFF77BFBEDB2002D90D0C4
:1037A000EDB200EE905AF8EE600AF4EE400AF1EE47
:1037B00010FA86D52000FFF762FF09E014F15000EF
:1037C000FFF73CFF0028D4F89800401EC4F898008A
:1037D00070BD38B5040000252BE014EB850090ED9A
:1037E000070AD4ED030A20EE200A242000FB05403E
:1037F00010F5C070D4F87C118847242000FB0540E8
:1038000010F5F870D4F8EC118847242000FB05402F
:10381000A030D4F89C108847242000FB054010F508
:103820008870D4F80C11884714EB850080ED0A0AE3
:103830006D1C032DD1DB31BD38B5040000252BE014
:1038400014EB850090ED070AD4ED030A20EE200A60
:10385000242000FB054010F5C070D4F87C11884787
:10386000242000FB054010F5F870D4F8EC118847CF
:10387000242000FB0540A030D4F89C108847242069
:1038800000FB054010F58870D4F80C11884714EB44
:10389000850080ED0A0A6D1C032DD1DB31BD10B50A
:1038A000040020006168884700283DD0002084F88B
:1038B00049002000FFF7ADFE00282BD0B4F94000EE
:1038C00000EE100AB8EEC00AD4ED040A30EE600A29
:1038D00084ED070AB4F9420000EE100AB8EEC00AFF
:1038E000D4ED050A30EE600A84ED080AB4F944000C
:1038F00000EE100AB8EEC00AD4ED060A30EE600AF7
:1039000084ED090A6248007800280AD12000FFF7F8
:1039100060FF09E0FFF78EFC01782000FFF7CCFE86
:1039200002E02000FFF788FF10BD80B50020584955
:103930000870002055490870FFF77CFC0079514958
:1039400008605148FFF734FD4E480068002803D056
:103950004C480068022802D14B48FFF7FBFC0120CD
:1039600002BD10B54B490968441A4A4908604A49E2
:1039700009686118484A116042490968002914D150
:1039800001004148FFF78BFF3F48FFF742FE002848
:103990000BD037483C49896A416035483A49C96A81
:1039A000816033483849096BC1603C480078002881
:1039B0002BD1002027E03A4911EB800191ED000A5C
:1039C0002B4911EB8001D1ED010A30EE200AF6EE11
:1039D000000A20EE200A00EE904AF8EE600A314913
:1039E00011EB800191ED001A00EE201A2D4911EB28
:1039F000800181ED001A1E4911EB80014968284AB7
:103A000042F82010401C0328D5DB10BD0000C8423E
:103A10002149096800291DD0002114E01E4A92EDB9
:103A2000000AB8EE400A1F4A12EB8102D2ED000AEA
:103A300080EE800A10EB810282ED000A194A002311
:103A400042F82130491C0329E8DB002012490860B4
:103A5000012008E0002103E0002240F82120491C59
:103A60000329F9DB002070474E0900207001002077
:103A7000EC07002020A107003D4B0008654B000823
:103A8000154D0008F0080020880100204D09002095
:103A90004C090020F4080020EC0800204B0900200D
:103AA000200800201408002000210180002141800E
:103AB0007047DFF89C03007800280FD10120DFF861
:103AC000901308700A20DFF88C1308800020DFF8BC
:103AD000841388700020DFF87C13C870DFF874034B
:103AE000704780B500F0F2FB02BD10B5040034222F
:103AF0000021DFF8680301F02EF9FFF7DAFFC07844
:103B0000DFF858134876DFF85403FFF7EAFF002880
:103B100001D1002056E04FF48070DFF84013088296
:103B2000DFF83803DFF8341349688847DFF82C03DF
:103B3000008A00EE100AB8EE400AF7EE000A80EEA6
:103B4000800ADFF8180380ED000A7D3C05D07D3C3B
:103B500003D07D3C01D07D3C04D14FF47A70BF4945
:103B6000086203E04FF47A70BC490862FFF7A1FFD6
:103B70000088B9490880B8480088002812D000247D
:103B80000EE0B648016AB448008800EE100AB8EEAC
:103B9000400AB348242202FB040000F0FBFF641C2F
:103BA000032CEEDBAF480088AF4909680880AD48B8
:103BB0004088AD4909684880AA488088AA490968B0
:103BC0008880012010BDA9480088002801D101206B
:103BD00000E00020C0B27047A4480088012801D14D
:103BE000012000E00020C0B27047A0480088B0F576
:103BF000C87F01D1012000E00020C0B2704738B575
:103C00000400002528E0FFF7F0FF002804D0002D75
:103C10000020974941F82500954850F8250000EE0E
:103C2000100AB8EEC00A8D4810EB8500D0ED090AE5
:103C300030EE200ABDEEC00A8D4810EB850080ED05
:103C4000000A864810EB8500002141620020864969
:103C5000096821F815006D1C032DD4DBFFF7BCFFAC
:103C6000002838D082480068C8304FF4C87190FBF3
:103C7000F1F07D49096808807D484068C8304FF4FC
:103C8000C87190FBF1F078490968488078488068ED
:103C9000C8304FF4C87190FBF1F07049B1F91010C1
:103CA000401A7149096888802000FFF7FDFE6E48C0
:103CB000006800886B4908806B4800684088694943
:103CC0004880694800688088664988800C22654978
:103CD000684800F0B4FD65480088401E63490880CC
:103CE00031BDB0F9001000EE101AB8EEC00A5B4901
:103CF000D1ED090A30EEC00A584981ED090AB0F940
:103D0000021000EE101AB8EEC00A5449D1ED0A0AAA
:103D100030EEC00A514981ED0A0AB0F9040000EE04
:103D2000100AB8EEC00A4D48D0ED0B0A30EEC00ABA
:103D30004A4880ED0B0A704738B50C0047484749A0
:103D400089688847002855D000200EE0434911EBD0
:103D50004001B1F9121000EE101AB8EEC00A3F4946
:103D600011EB800181ED090A401C0328EEDB3A4883
:103D70000088002814D0002510E0384810EB85009A
:103D800090ED090A3648242101FB050000F0C2FF2E
:103D9000324810EB850080ED090A6D1C032DECDB29
:103DA000FFF711FF002802D12000FFF728FF2E485F
:103DB0000068FFF796FF30480068401C2E490860F5
:103DC000002011E02D4911EB800191ED000A2349FB
:103DD00011EB8001D1ED090A30EE200A274911EBE1
:103DE000800181ED000A401C0328EBDB01201B4908
:103DF00081F8300031BD2049096800291DD000211B
:103E000014E01D4A92ED000AB8EE400A1B4A12EB7C
:103E10008102D2ED000A80EE800A10EB810282ED71
:103E2000000A164A002342F82130491C0329E8DB26
:103E3000002011490860012008E0002103E0002271
:103E400040F82120491C0329F9DB002070470000BD
:103E500046090020CC0700203C09002090060020E5
:103E60002406002038080020640100203E090020BC
:103E70000808002000000608C4080020FC070020F5
:103E800080B500201349086000F07EFF01BD114994
:103E9000096840180F4909688142FBD3704738B55B
:103EA0000C4804684FF47A7500F09FFF05FB04008E
:103EB00032BD10B50400FFF7F2FF2418FFF7EFFF43
:103EC0008442FBD210BD03480068401C01490860D1
:103ED000704700002809002000B587B001210220AA
:103EE00000F0FDFF01214FF4804001F008F84FF48D
:103EF0006040009000208DF8050002208DF804003D
:103F000000A9DFF8500701F04FF805220D21DFF876
:103F1000440701F0A0F805220E21DFF8380701F070
:103F20009AF805220F21DFF82C0701F094F84FF4DE
:103F30008050009001208DF8040001208DF80700CA
:103F400000208DF8060000A9DFF8080701F02CF822
:103F50004FF48051DFF8FC0601F079F80020ADF84D
:103F600008004FF48270ADF80A000020ADF80C0094
:103F70000220ADF80E000120ADF810004FF40070E3
:103F8000ADF812002820ADF814000020ADF816009E
:103F90000720ADF8180002A9DFF8BC0601F084F88C
:103FA0000121DFF8B40601F09FF807B000BD10B59D
:103FB00004000221DFF8A00601F0A8F80028F8D0DC
:103FC000E4B2210089B2DFF8900601F09DF80121EA
:103FD000DFF8840601F09AF80028F8D0DFF87806B8
:103FE00001F090F8C0B210BDF8B504000D00160045
:103FF000002707E0002C04D0002D02D1385DFFF728
:10400000D6FF7F1CF6B2B74211DA002C06D0002D85
:1040100004D0385DFFF7CBFF7855F2E7002CE9D1EB
:10402000002DE7D0FF20FFF7C2FF7855E9E7F1BD8B
:1040300038B50C0015004FF48051DFF8180601F078
:1040400008F80120FFF735FF2000C0B2FFF7AFFFEF
:104050002800C0B2FFF7ABFF4FF48051DFF8F40542
:1040600000F0F5FF0120FFF724FF012032BD10B55D
:104070000C004FF48051DFF8DC0500F0EAFF01206E
:10408000FFF717FF54F08000C0B2FFF790FFFF204A
:10409000FFF78DFF04004FF48051DFF8B80500F002
:1040A000D6FF2000C0B210BD70B50C0015001E0078
:1040B0004FF48051DFF89C0500F0CBFF0120FFF7A3
:1040C000F8FE54F08000C0B2FFF771FF3200D2B2A8
:1040D00029000020FFF788FF4FF48051DFF87405B6
:1040E00000F0B5FF0120FFF7E4FE012070BD1CB514
:1040F0000400062300AA432114F10800FFF7D4FFAF
:10410000C0B2002801D1002018E09DF800009DF801
:10411000011051EA0020A4F840009DF802009DF82B
:10412000031051EA0020A4F842009DF804009DF815
:10413000051051EA0020A4F84400012016BD1CB56A
:104140000400062300AA3B2114F10C00FFF7ACFF8A
:10415000C0B2002801D1002015E09DF800009DF8B4
:10416000011051EA002060829DF802009DF80310C2
:1041700051EA0020A0829DF804009DF8051051EA44
:104180000020E082012016BD002190F84820042A7A
:1041900006DA90F84B00012801D1012100E000214E
:1041A0000800C0B2704710B50400200000F036F8D7
:1041B0002000FFF79CFF10BD4FF4006101827047A3
:1041C000F8B504000D0016003200D2B22900C9B2C1
:1041D0002000FFF72DFF6420FFF76BFE142701235B
:1041E00000AA2900C9B22000FFF75EFF9DF8000079
:1041F000F6B2B04201D101200FE03200D2B2290064
:10420000C9B22000FFF714FF6420FFF752FE380008
:10421000471EC0B20028E2D10020F2BD10B5040054
:1042200080226B2114F10800FFF702FF9620FFF7B0
:1042300040FE01226B2114F10800FFF7C1FF182294
:104240001B2114F10800FFF7BBFF2000FFF79CFFC4
:104250000200D2B21A2114F10800FFF7B1FF94F85E
:104260004D20192114F10800FFF7AAFF18221C2184
:1042700014F10800FFF7A4FF1222372114F10800FF
:10428000FFF79EFF10BD38B5040080226B2120008F
:10429000FFF7CEFE14259620FFF70BFE75212000B8
:1042A000FFF7E5FEC0B2712802D0C0B2732801D179
:1042B00001200AE0EDB2002D01D1002005E0280028
:1042C000451EC0B20028E6D1002032BDDFF88C13B5
:1042D0004160DFF88C13816001207047DFF88413A0
:1042E0000160DFF884134160DFF88013C1600120B2
:1042F00070474278007850EA022010FB01F04FF43A
:10430000807190FBF1F0B0F5004F01DB47F6FF70D4
:1043100010F5004F00DAD64800B2704780B5D2B22F
:10432000C9B2FFF785FE0A20FFF7C3FD012002BDD9
:1043300038B50C0015000C2225210020FFF7EEFFF8
:104340002200D2B226210020FFF7E8FF2A00D2B2D5
:1043500063210020FFF7E2FF812227210020FFF7E1
:10436000DDFF012032BD70B50C0015001E008C224F
:1043700025210020FFF7D2FF2200D2B22621002003
:10438000FFF7CCFF16F00F0050F08002D2B22721C9
:104390000020FFF7C3FF0420FFF779FD3300DBB2F5
:1043A0002A0049210020FFF77FFEC0B270BD80B512
:1043B000DBB2C9B2FFF7D7FF02BD80B5D2B2C9B236
:1043C000FFF7B6FF02BD38B50C001500A94800780C
:1043D000002801D000201DE0A64845708C22252130
:1043E0000020FFF79BFF2200D2B226210020FFF71A
:1043F00095FF15F00F0050F08002D2B22721002067
:10440000FFF78CFFFFF74BFD9A494860012099495F
:104410000870012032BD80B596480078002801D18F
:1044200000200AE0FFF73BFD92494968401AD0F5A9
:10443000FA50002801D50020FFE702BD10B50C009E
:10444000FFF7E9FF002801D0FFF733FD002089497D
:10445000087088484378220049210020FFF724FE95
:10446000012010BD70B504000D000020012600E001
:10447000002681490978002903D002292CD00AD3CB
:1044800037E0012202212000FFF79DFF01207A4939
:10449000087000202EE0FFF7BEFF002801D00020AA
:1044A00028E029002000FFF7C9FF297811F0010159
:1044B000084207D10021704A1170F6B2002ED7D100
:1044C000002017E0072203212000FFF77CFF0220D5
:1044D0006949087000200DE0FFF79DFF002801D01A
:1044E000002007E029002000FFF7A8FF0021624A12
:1044F0001170C0B270BD2DE9FC4104000D00002612
:1045000014F1080700A93800FFF7ACFF06009DF87A
:104510000680F6B2002E01D100201EE011220A21F1
:104520003800FFF74AFF5FEA087001D5002014E069
:10453000B4F90C1000A8FFF7DCFE6880B4F90E1087
:104540000DF10200FFF7D5FE2880B4F9101001A884
:10455000FFF7CFFE4042A8800120BDE8F68130B5CC
:1045600083B0040014F1080500220A212800FFF797
:1045700024FF0F220A212800FFF71FFF032300AAB0
:1045800010212800FFF713FF9DF800008030A08164
:104590009DF801008030E0819DF80200803020828B
:1045A00000220A212800FFF708FF012301AA0221A7
:1045B0002800FFF7FCFE012301AA09212800FFF7CC
:1045C000F6FE11220A212800FFF7F7FE01203EBD6A
:1045D00080B5122237210020FFF7A0FE0D222421F2
:1045E0000020FFF79BFE30226A210020FFF796FE95
:1045F00001BD80B5102237210020FFF78FFE01BDDD
:1046000038B5040000208DF8000014F108052800DA
:10461000FFF7DEFF01220B212800FFF7CEFE04206A
:10462000FFF735FC012300AA00212800FFF7BFFE99
:10463000C0B2002809D09DF80000482805D10F48D5
:1046400020600F486060012003E02800FFF7D1FFE1
:10465000002032BD0004024000380040B94100088B
:104660003F410008A7410008EF40000890C1793D94
:104670000080FFFF9C080020520900205F450008D1
:10468000F7440008FF21B0F100629C4B9A4205D329
:104690009B49411A40F20F22914203D29949411A93
:1046A000012901D3FF2123E09649884201D3382113
:1046B0001EE09549884201D3302119E09349884290
:1046C00001D3282114E09249884201D320210FE030
:1046D0009049884201D318210AE08F49884201D3CA
:1046E000102105E08D49884201D3082100E0002116
:1046F000080080B2704738B504000D00ADB2A4B216
:10470000A54247D3A4B2002C45D0A4B2082C42D075
:10471000A4B2102C3FD0A4B2182C3CD0A4B2202CB0
:1047200039D0A4B2282C36D0A4B2302C33D0A4B2C5
:10473000382C30D0A4B2402C2DD0A4B2482C2AD092
:10474000A4B2502C27D0A4B2582C24D0A4B2802CD0
:1047500021D0A4B2882C1ED0A4B2902C1BD0A4B21D
:10476000982C18D0A4B2A02C15D0A4B2A82C12D08A
:10477000A4B2B02C0FD0A4B2B82C0CD0A4B2C02CD0
:1047800009D0A4B2C82C06D0A4B2D02C03D0A4B2B5
:10479000D82C00D052E005E00221A4B2200000F0A5
:1047A000D8FC0834ADB2A4B2A54247D3A4B2002CC1
:1047B000F2D0A4B2082CEFD0A4B2102CECD0A4B24A
:1047C000182CE9D0A4B2202CE6D0A4B2282CE3D037
:1047D000A4B2302CE0D0A4B2382CDDD0A4B2402C4E
:1047E000DAD0A4B2482CD7D0A4B2502CD4D0A4B2E2
:1047F000582CD1D0A4B2802CCED0A4B2882CCBD04F
:10480000A4B2902CC8D0A4B2982CC5D0A4B2A02C2D
:10481000C2D0A4B2A82CBFD0A4B2B02CBCD0A4B239
:10482000B82CB9D0A4B2C02CB6D0A4B2C82CB3D086
:10483000A4B2D02CB0D0A4B2D82CADD031BD2DE9CB
:10484000F04104000D0016002000FFF71BFF0700D9
:1048500014FA86F0FFF716FF8046BFB2FF2F04D090
:104860001FFA88F8B8F1FF0F01D1002017E000F01F
:1048700057FC414689B2380080B2FFF73CFF002761
:1048800006E0297814FA87F000F0BBFC6D1C7F1C51
:10489000BFB2B6B2B742F4D300F052FC0120BDE87B
:1048A000F08110B4B0F10063144CA34205D3144B53
:1048B000C31A40F20F24A3420ED210FA82F3B3F1CE
:1048C00000630E4CA34209D310FA82F30C4C1B1B5D
:1048D00040F20F24A34201D300200CE0002305E0A6
:1048E00010FA83F424780C70491C5B1C9BB292B2C2
:1048F0009342F5D3012010BC70470000FFFF0F006A
:104900000078FF1F000006080000040800000208ED
:104910000000010800C000080080000800400008F6
:104920005FF0FF0C1CEAD05114BF614506E0C110D6
:10493000400721F0E04101F16051704779B900F082
:10494000004100020AD0B0FA80FC00FA0CF001F13C
:104950006051A1EB0C5101EBD021400570474102A1
:104960000CBF40F4E0016FF000010020704780B5FB
:104970002DED028B03B443EC182B00F0ABFC0228A6
:1049800015D051EC180B00F0A5FC022813D0DDE97E
:10499000000153EC182BFCF797FE08D3DDE9002348
:1049A00051EC180B00F0B6FC05D1002B03D502B07A
:1049B00051EC180B02E0DDE9000102B0BDEC028B06
:1049C00004BD80B553EC112B51EC100BFFF7CFFF5A
:1049D00041EC100B01BD00004FEAF17CBCF1E04C52
:1049E0002CBFBCF5001F11E05FEA4C0C34BFBCF1DA
:1049F0007F5F2EE05FEA9C0C4FEA0C1C4FEA3C0CF8
:104A0000C10071F100414CEB50707047C90241EA9E
:104A10005051C00218BF41F0010141F000414FEA7E
:104A20006C50C0F10900212810D240EACC7CCCF1B6
:104A3000200C11FA0CF070F10040CCF1200C21FA9E
:104A40000CF00CF0004C40EB0C0070474FEACC70BF
:104A50007047490011F5001F04D84FEACC10FF3011
:104A6000C0057047C817704780B52DED028B03B4A1
:104A700043EC182B00F02EFC022819D051EC180B37
:104A800000F028FC02280FD0DDE9000153EC182BC0
:104A9000FCF71AFE08D3DDE9002351EC180B00F0F7
:104AA00039FC05D1002B03D5DDE9000102B002E09D
:104AB00002B051EC180BBDEC028B04BD80B553EC79
:104AC000112B51EC100BFFF7CFFF41EC100B01BD88
:104AD0001FB500F015F8212101601FBD82B08DEDDA
:104AE000000A0098C0F3C750FF2806D010B90098FC
:104AF000400202D002B000F01DBC02B070470000BE
:104B00000148FDF7A1BA000084010020002180F8CF
:104B100048109FED090A01214A1E80F84D20C9B2B4
:104B200000EE901AF8EE600A20EE800ABCEEC00A91
:104B300010EE100A7047000000007A447047000031
:104B40009FED711A20EE010AB7EE001A81EE000AFD
:104B500030EE200A80EE800A70470021016080ED6F
:104B6000010A7047D0ED000A30EE600AD0ED010A6C
:104B700090ED001A00EE201A80ED001A90ED000A68
:104B8000704720EE201A20EE000A00EEE00A81EEC7
:104B9000000A704738B52DED028B0400B0EE408A54
:104BA0000D00B0EE000AFEF7A3F90022F7EE000AAE
:104BB000C0EE800A2900B0EE480A200000F004F898
:104BC000BDEC028B31BD000038B52DED048B040027
:104BD00001EE101AB0EE608A1500DFED4B0A20EEF0
:104BE000200AF8EE410A20EE200ADFED480A60EEC6
:104BF000208AB0EE680AFDF7D5FFB0EE409AB0EE1D
:104C0000680AFEF725F8F0EE000A68EE200AC9EE01
:104C1000200A9FED3F1ADFED3E1A9FED3D2ADFEDA2
:104C20003C2A9FED3B3ADFED3A3AEDB2002D03D03E
:104C3000022D37D021D347E0B7EE001A31EE401AEB
:104C4000F6EE001A21EE211AF7EE001A71EEC01AE4
:104C5000B7EE002A32EE402AF6EE002A22EE222A91
:104C6000F7EE002A70EEA22AB8EE003A20EE033AE0
:104C7000B7EE000A70EE603A26E0B7EE001AF8EEE2
:104C8000001A60EE211AB7EE002AF7EE002A70EE45
:104C9000A22AB8EE003A20EE033AB7EE000A70EE10
:104CA000603A11E0B0EE601ADFED191AB1EE602A39
:104CB000F7EE002A70EEA22AB8EE003A20EE033A90
:104CC000B7EE000A70EE603A81EE220A84ED000A27
:104CD00081EEA20A84ED010A82EE220A84ED020A24
:104CE00083EE220A84ED030A83EEA20A84ED040A0D
:104CF0000020A061A069606100202062206AE0615C
:104D0000BDEC048B31BD0000DB0FC940BD378635DB
:104D10000000000090ED001AD0ED050A41EE000AF7
:104D200090ED011A21EE001AD0ED031A01EEE01AFF
:104D3000D0ED061A31EE211A80ED051A90ED021A17
:104D400021EE000A90ED041A01EE600A80ED060AD9
:104D5000B0EE600A704710B5044610460A46014698
:104D6000204600F019FB204610BD000080B501214F
:104D7000204800F0D9FC012805D101211D4800F090
:104D8000EAFCFFF7A0F801BD00B585B001212020A5
:104D900000F0B5F8174800F033FB5320ADF80400DD
:104DA00040F2E730029001A9124800F0E7FB002032
:104DB0008DF8010007208DF8020001208DF8030016
:104DC00037208DF8000000A800F04DFD01210948B2
:104DD00000F0A6FC01220121064800F095FC01210B
:104DE000044800F002FC05B000BD80B5014800F0A9
:104DF000FAFB02BD00140040F0B4002100220023A1
:104E0000022400250226DFF878713F6817F00C07AE
:104E10003900002904D0042906D0082908D035E03B
:104E2000DFF86411016034E0DFF86011016030E008
:104E3000DFF850110968C1F38055DFF8481109689F
:104E400011F03F06002D0BD0DFF84011B1FBF6F159
:104E5000DFF830211268C2F3881202FB01F30AE086
:104E6000DFF82411B1FBF6F1DFF818211268C2F364
:104E7000881202FB01F3DFF80C110968C1F301414C
:104E8000491C4C00B3FBF4F1016002E0DFF8F810BC
:104E90000160DFF8EC10096811F0F0010909DFF892
:104EA000F0208A5C0168D1404160DFF8D4100968C5
:104EB00011F4E051890ADFF8D8208A5C4168D140BA
:104EC0008160DFF8BC10096811F46041490BDFF81C
:104ED000C0208A5C4168D140C160F0BC7047C9B253
:104EE000002905D02B49096808432A49086005E0D4
:104EF0002849096831EA0000264908607047C9B2AC
:104F0000002905D02449096808432349086005E0C1
:104F10002149096831EA00001F4908607047C9B299
:104F2000002905D01D49096808431C49086005E0AF
:104F30001A49096831EA0000184908607047C9B287
:104F4000002905D01649096808431549086005E09D
:104F50001349096831EA0000114908607047C9B275
:104F6000002905D00F49096808430E49086005E08B
:104F70000C49096831EA00000A49086070470000DE
:104F800008380240043802400024F40000127A007D
:104F90004C01002030380240403802404438024082
:104FA000203802402438024030B40022002300247C
:104FB00000252A0047E0012393400C681C409C42D6
:104FC00040D1036803241500EDB26D00AC40A3434B
:104FD000036003680C791500EDB26D00AC4023430B
:104FE00003600B79012B02D00B79022B1AD1836855
:104FF00003241500EDB26D00AC40A34383608368C9
:105000004C791500EDB26D00AC40234383604368DA
:1050100001249440A343436043688C799440A4B234
:1050200023434360C36803241500EDB26D00AC4018
:10503000A343C360C368CC791500EDB26D00AC40EA
:105040002343C360521C102AB5D330BC7047018380
:10505000704741837047F0B400230024D2B211F0AE
:105060000705EDB2AD00AA40130089B2CA1010EBDB
:10507000820289B2CD1010EB85052D6A0F2611F042
:105080000707FFB2BF00BE40B543156289B2CA1020
:1050900010EB8202126A1A43140089B2C91010EB95
:1050A00081000462F0BC704710B4002203881A002B
:1050B00012F441520B884C8823438C882343CC88BC
:1050C00023430C8923434C8923438C892343CC8974
:1050D00023431A430280828B4FF2FF731A4082836C
:1050E000098A018210BC7047C9B2002904D0018826
:1050F00051F04001018004E001884FF6BF72114079
:105100000180704780897047818170470022008943
:10511000084201D0012200E000221000C0B2704716
:10512000DFF874010068002809D5DFF87001DFF8A6
:1051300070110860DFF86C01DFF8641108607047D7
:10514000DFF85401006850F00040DFF84C110860AF
:10515000704738B5040000250920C9B2002901D1E3
:1051600000250DE0C9B2012902D14FF4807507E096
:10517000C9B2022902D14FF4007501E04FF4407525
:1051800000F094F8C0B2092839D1DFF80C010068AA
:1051900030F44070DFF800110860DFF8FC000068B0
:1051A0002843DFF8F4100860DFF8EC00006830F006
:1051B000F800DFF8E4100860DFF8DC00006854F065
:1051C00002010843DFF8D0100860DFF8CC00006867
:1051D00050F48030DFF8C010086000F067F8DFF8A6
:1051E000B810096831F00201DFF8AC201160DFF877
:1051F000A810096831F0F801DFF89C201160C0B2F6
:1052000032BD70B504000D00092600F04FF806000D
:10521000F6B2092E19D12048006830F440701E49BA
:1052200008601D4800681C4908601B48006850F071
:10523000010019490860257000F038F8060016488A
:10524000006840084000144908603000C0B270BDDA
:10525000092015490968C90301D5012019E0124840
:105260000068C00601D5062013E00F480068C0059D
:1052700001D502200DE00C48006810F0EF0F01D0BE
:10528000072006E008480068800701D5082000E0F4
:105290000920C0B270470000103C0240230167455E
:1052A000043C0240AB89EFCD0C3C024080B50920A4
:1052B0008DF80000FFF7CCFF8DF8000003E0FFF74A
:1052C000C7FF8DF800009DF800000128F7D09DF879
:1052D000000002BD03B4DDE90023C3F30A5140F22C
:1052E000FF72914206D001B10CE0190350EA11306F
:1052F00006D00BE0190350EA113014BF0220012040
:1053000002B070474FF0FF3002B070476FF00100FD
:1053100002B0704790420CD141EA030C50EA4C0CA9
:1053200007D0994205D14FF4001C1CEB410F38BF48
:105330008942704780B58DED000A012100A800F078
:10534000E1FAA0B9002100A800F0DCFA08B34FF0A0
:10535000FF3100A800F0D6FAD8B100989DED000A00
:10536000002854BFF0EE000AF8EE000A0DE000211C
:1053700000A800F0C7FA60B100989DED000A00286F
:105380004CBFFFEE000AF7EE000A30EE200A8DED6A
:10539000000A9DED000A01BD62F30F2262F31F4275
:1053A000401810F0030308D0C91A1FD3DB0748BF09
:1053B00000F8012D28BF20F8022D130030B4144648
:1053C0001546103928BF20E93C00FAD8490728BF04
:1053D00020E90C0048BF40F8042D890028BF20F8C0
:1053E000022D48BF00F8012D30BC7047C91818BF06
:1053F00000F8012DCB0728BF00F8012D70470000F1
:1054000080B5DFF80412884208D101210120FFF79E
:10541000A6FD00210120FFF7A2FDAEE0B0F1804F14
:1054200008D101210120FFF78AFD00210120FFF7AB
:1054300086FDA2E0DFF8D411884208D101210220C4
:10544000FFF77DFD00210220FFF779FD95E0DFF8F1
:10545000C011884208D101210420FFF770FD00210E
:105460000420FFF76CFD88E0DFF8A811884208D11E
:1054700001210820FFF763FD00210820FFF75FFDF1
:105480007BE0DFF89411884208D101211020FFF75A
:1054900056FD00211020FFF752FD6EE0DFF87C1171
:1054A000884208D101212020FFF749FD002120205A
:1054B000FFF745FD61E0DFF86811884208D101215E
:1054C0000220FFF74CFD00210220FFF748FD54E0C9
:1054D000DFF8501188420AD101215FF48030FFF7D4
:1054E0003EFD00215FF48030FFF739FD45E0DFF835
:1054F000381188420AD101215FF40030FFF72FFDF7
:1055000000215FF40030FFF72AFD36E0DFF81C11C0
:1055100088420AD101215FF48020FFF720FD00219D
:105520005FF48020FFF71BFD27E0DFF804118842BD
:1055300008D101214020FFF702FD00214020FFF7A4
:10554000FEFC1AE0DFF8EC10884208D1012180202F
:10555000FFF7F5FC00218020FFF7F1FC0DE0DFF8FC
:10556000D810884209D101214FF48070FFF7E7FC81
:1055700000214FF48070FFF7E2FC01BD0022038898
:105580001A00214B98420ED0254B98420BD0B0F117
:10559000804F08D01D4B984205D01D4B984202D039
:1055A0001C4B984204D14FF68F731A404B881A4314
:1055B000194B984207D0194B984204D04FF6FF433D
:1055C0001A400B891A4302804A68C2620A8802851F
:1055D0000D4A904202D0124A904201D1897A018646
:1055E000012181827047406A7047C9B2002904D006
:1055F000018851F00101018004E001884FF6FE723C
:10560000114001807047000000000140000400408C
:1056100000080040000C0040001000400014004052
:1056200000040140004001400044014000480140A6
:1056300000180040001C00400020004038B5040065
:105640000D00288800280AD12B89AA8869882000A3
:1056500000F085F8E988200000F030F825E028887F
:1056600004280AD12B89AA886988200000F093F8C1
:10567000E988200000F02BF817E0288808280AD1D4
:105680002B89AA886988200000F0A6F8E988200004
:1056900000F027F809E02B89AA886988200000F02B
:1056A000BBF8E988200000F025F831BD406B704759
:1056B000806B7047C06B7047006C7047028B4FF671
:1056C000F3731A400283028B114301837047028BEC
:1056D0004FF2FF331A400283028B52EA0121018309
:1056E0007047828B4FF6F3731A408283828B11438B
:1056F00081837047828B4FF2FF331A408283828B03
:1057000052EA012181837047D2B2002A03D08289F4
:105710001143818103E0828932EA0101818170476E
:1057200089B2C9430182704730B4002200230024AB
:10573000058A0D402B008089084004009BB2002B95
:1057400004D0A4B2002C01D0012200E000221000FD
:10575000C0B230BC704789B2C94301827047F0B40F
:1057600000240025068C4FF6FE773E400684068B0B
:105770003400068C35004FF60C76344052EA0312A2
:1057800014434FF6F572154051F001010D430483A7
:105790000584F0BC7047F0B4002500260024078C77
:1057A0004FF6EF7C1CEA07070784078B3D00078C48
:1057B0003E0009010C0040F6FF410D4055EA03355B
:1057C00055EA02254FF65F710E4054F010010E436A
:1057D00005830684F0BC7047F0B400260024002541
:1057E000078C4FF6FF6C1CEA07070784878B3E0087
:1057F000078C3C0009020D004FF60C710E4052EA76
:1058000003110E434FF2FF510C4055F480710C43CD
:1058100086830484F0BC7047F0B400250026002481
:10582000078C4EF6FF7C1CEA07070784878B3D0038
:10583000078C3E0009030C0040F6FF410D4055EA7D
:10584000022555EA033545F6FF710E4054F48051A8
:105850000E4385830684F0BC70470000234908434B
:1058600023490860704710B4002100220F23C47838
:10587000002C1ED01E49096811F4E061D1F5E061E9
:10588000090AD1F10402DBB20B41417891408278E0
:105890001A4011430901174A0378995401210278EB
:1058A00012F01F029140144A0078401142F8201073
:1058B00009E00121027812F01F0291400F4A00789E
:1058C000401142F8201010BC7047042806D10C4843
:1058D000006850F004000A49086005E008480068C4
:1058E00030F0040006490860704700000000FA0527
:1058F0000CED00E000E400E000E100E080E100E009
:1059000010E000E00268C2F3C752FF2A06D1006827
:10591000400201D1012070470220704703685B00FC
:1059200016D0C2F19602521A012A11DB182A04DBA2
:10593000016801F00041016007E001219140026827
:10594000491E11404A40026011B14FF0FF307047CC
:105950000020704783B0C0B2062802DB9FED990A91
:105960005FE0DFED980A00210DE0DFF8A028C0B26B
:105970000C2303FB0022C9B252F8212000ABC9B2AC
:1059800043F82120491CC9B20329EEDB00212DE098
:1059900000AAC0B212EB800292ED000A00AAC0B2C7
:1059A00012EB800292ED011AB4EE410AF1EE10FA08
:1059B00014D500AAC0B252F8202000EE102A00AA86
:1059C000C0B212EB8002526800ABC0B243F8202094
:1059D00000AAC0B212EB800282ED010A401CC0B2E4
:1059E000C9B2D1F102029042D2DB491CC9B20229EC
:1059F00001DA0020F3E7012108E000A8C9B210EBAA
:105A0000810090ED000A70EE800A491CC9B202299B
:105A1000F3DBB7EE000A80EE800ADFED6B0A20EEC2
:105A2000200A03B07047000010B4DFF8E427C0B2CA
:105A300052F820208A420ED2DFF8D427C0B252F8A2
:105A400020208A1A00EE102AB8EE400ADFED5F0A25
:105A500080EE200A10E042F21072DFF8B437C0B2D4
:105A600053F82030D21A8A1800EE102AB8EE400AF5
:105A7000DFED560A80EE200ADFF89027C0B20C2333
:105A800003FB0022DFF88C37C0B2C35C12EB830249
:105A9000DFED4F0A80EE800AF2EE060A80EE200A61
:105AA000DFED4C0A80EE200A82ED000ADFF8642761
:105AB000C0B2825C521C032392FBF3F403FB14225A
:105AC000DFF85037C0B2C254DFF84427C0B242F802
:105AD000201010BC704710B5C0B20C280FDA00249B
